:100000006F00D01C00000000F2010000F4010000AD
:1000100000000000000000000000000000000000E0
:1000200000000000000000000000000000000000D0
:10003000CA09000000000000CA090000000000001A
:10004000CA090000CA090000CA090000CA09000064
:10005000CA090000CA09000074030000CA090000B0
:10006000CA090000CA090000CA090000CA09000044
:10007000CA090000CA090000CA090000CA09000034
:100080009C030000CA090000CA090000CA09000058
:10009000CA090000CA090000CA09000000000000E7
:1000A000511126C022C206C4828282441244A24058
:1000B000310182802A86014593F6150091C232955E
:1000C00085810606F5F9828000000000634E050276
:1000D00063C305042E86AA857D5515C285466378BF
:1000E000B6006356C00006068606E36CB6FE014500
:1000F00063E4C500918D558D85820582F5FA828075
:100100008682C93F2E8582823305A04063D70500D1
:10011000B305B040C1B7B305B0408682653F330533
:10012000A0408282868263C70500634905005D376F
:100130002E858282B305B040E35B05FE3305A04007
:10014000513F3305B040828200003D432A876373EC
:10015000C3029377F700BDEFADE5937606FF3D8AC6
:10016000BA960CC34CC30CC74CC74107E36BD7FE10
:1001700011E28280B306C3408A0697020000969679
:100180006780A6002307B700A306B7002306B700C1
:10019000A305B7002305B700A304B7002304B700E5
:1001A000A303B7002303B700A302B7002302B700DD
:1001B000A301B7002301B700A300B7002300B700D5
:1001C000828093F5F50F93968500D58D9396050162
:1001D000D58D61B793962700970200009696868288
:1001E000E78086FA9680C1171D8F3E96E374C3F8A8
:1001F000A5B701A0B707EFBE37E700E09387070870
:100200003CC701A0EFF2DFE9711102C003D72181E1
:1002100083A78181B3B7E7001387C1811CC314434F
:100220001386C1811387C18593874184ADC60C4372
:1002300014438D858D8E14C38C439306800263F71F
:10024000B6009443938686FD94C319A023A00700AB
:100250009C4383D68184958F938681859CC28842F6
:100260000C4393171500AA978A058607AE979187C6
:100270003EC082459D4763C6B70402C082453735FC
:100280000140130505C0C205C181EF10201323985A
:100290000180110119BD8C4383A6018563F9D50046
:1002A0008C43A9058CC38C43E3F4B6FA71BF8C432D
:1002B000E3F0B6FA8C43D9158CC38C43E3FAD5F836
:1002C00061B782459307401A63D6B7009307001EB3
:1002D0003EC06DB71C42DDF394421C43B6971CC36D
:1002E00014438567938787BB63D4D7001CC379B752
:1002F0001443FD7793878744E3D2F6F8C5BFEFF246
:100300003FDA3705024013058505EF00701EC1472F
:10031000898F93F7F70F3D476376F7009387018244
:10032000A3870700B7350000138441819384C184FB
:10033000938641811386C1849385C5AC1385018260
:10034000EF10B00589476318F500984023A8E184B1
:10035000184023ACE1803704024013058405C145F1
:10036000EF00D018854513058405EF00D01523A8AC
:10037000018225BB0945EF003018938741859A23F8
:10038000420741832394E184BE23C207C18323999A
:10039000F18005472398E18073002030130141FD6F
:1003A00022CC374401402ACA2EC813050480930585
:1003B000404206D416D21AD01ECE32C636C43AC235
:1003C0003EC0EF10A01319CD37050240814513053B
:1003D0008505EF00500F054723A8E18203570480ED
:1003E000835744806244A25092520253F2435245D2
:1003F000C2453246A246124782471301C10273002A
:100400002030EFF2FFC9EF00B00FEF003016930677
:100410000002614691450545EF00F01CEF00F00F2A
:1004200069B1EFF2FFC705655111854513050580D8
:100430003734014002C002C223140100EF001056FD
:100440009307F01D8A85130504C03EC202C0EF0069
:10045000B0588545130504C0EF00906F3101B1B16C
:10046000EFF21FC431118545130500023714014016
:1004700002C402C602C802C002C2EF003052930793
:10048000000891442C00130504407C8426C8EF002A
:10049000F01B1305044093050008EF00F0222C0028
:1004A0008547130504407C8426C8EF00301A854731
:1004B0000A853EC03EC2EF00F0340545EF00B0367D
:1004C0005101E5B6EFF2DFBD130181F93734014088
:1004D00002CCE8854C08130504C002CA02CE02D043
:1004E000EF007054130504C0A145EF00F06A130635
:1004F000C00281456818913985450545EF003048AF
:10050000B704024013858400EF00406F3724014098
:100510009307C4443EDE93874185BEC0930700081D
:10052000BEC893070010BECA93070040BECC930715
:100530000002094713858400BECE6C188967BAC4CF
:10054000BED082C282C682D2EF0060748545138518
:100550008400EF004077D94702C05C8085475C810A
:100560000A8585473EC2EF00D023138584000546E7
:100570008945EF00807661468145481002C402C675
:1005800002C8E136854513050002EF00304185457C
:1005900013050020EF0090400145EF00F032D146F6
:1005A000371501402C007484130505408D4636C66E
:1005B00002C8EF00B009130504406D2985470947BB
:1005C0003ED43ED64C10B7070400130504403ED875
:1005D000230CE10202D202DAC9218D4605468D457F
:1005E00013050440A9238D4609469D451305044083
:1005F0003D2BB705000213050440FD238545130577
:100600000440DD29854513050440F92913050440FC
:10061000ED29930404402685F52975FD1305044052
:1006200037240140E529930404402685ED2975FD12
:100630008545130504404D2913018106BDB4EFF231
:100640003FA637051600111185451305050402C0A4
:1006500002C202C402C602C802CA02CCEF00D0071E
:1006600085454145EF00903385477C80E1473EC496
:100670008A858D47371501403EC2EF00207DC16756
:1006800037340140938707063EC66C00894713053F
:1006900004C0FC8223190100EF005042130504C07E
:1006A000A145EF00D050130504C08545EF00304D43
:1006B0008545130504C0EF00304B7101FDB2EFF228
:1006C0003F9E1301C1F785450545EF00502B1306EA
:1006D000C00281456810953C37040240130544046C
:1006E000312BB7440140938741839306000213875F
:1006F0004480130300083ED86C10C147130544041E
:10070000B6C63AD63EDA3EDC9AC002DE82C282C467
:1007100082C882CAAD2B1306C0028145A8083534B1
:1007200013058405E129B747014013874780BACCF8
:10073000C14713030008AC0813870182BED213051A
:1007400084058D679AD6BACEBEDE82D082D482D896
:1007500082DA82DC02C1252B85471307A011231101
:1007600001000A853EC25C817880EF00900311652C
:1007700085451305050202C802CA02CC02CE02D08A
:1007800002D202D4EF0090210D473ACA61473ACC19
:1007900037170140930600020C0813050740F48048
:1007A00075253717014093060004F4800C08930662
:1007B00080041305074036CC512D716713070720BD
:1007C0006C083ACE1385048037070C003AD202D069
:1007D00023140102EF00D03E1307001285472800C2
:1007E00078843EC623150100EF00A07B05461385E3
:1007F000048093054042EF00D04A13054404854528
:10080000D9211305840585457D29854513850480F7
:10081000EF00D047130141086FF03F89EFF25F8886
:100820000545EF0030040945EF0010060545EF00CF
:10083000E076EF007050F136ED361D31014559314B
:1008400037440140ED3BA53D130504800546930563
:100850000008EF0070481305048005469305000466
:10086000EF009047938701819E23C207C18399C3FC
:10087000EFF05F9983A7018391C3513403D681843C
:1008800083D62181B73500009385C5AD138541839B
:10089000EF10402EC1BFEFF2BF80371402401C4062
:1008A0003707FFF8611193E717001CC05C40414512
:1008B000F98F5CC01C403707F7FE7D17F98F1CC00D
:1008C0001C403707FCFF7D17F98F1CC05C40417747
:1008D0007D17F98F5CC0B7079F001CC49D2F1C4C6F
:1008E0003706020093E707021CCCB717014003A7A5
:1008F0000740938607401377F7F023A0E74003A74C
:1009000007401367070823A0E74089479CCA02C035
:1009100002C21C4C37070140A16693E717001CCCAC
:100920005C43D58F5CC31C404167B7160240D98F2A
:100930001CC009679C42F18F3EC2824785073EC0BA
:10094000924781E78247E397E7FEB71702409C434F
:100950001397E7006359070685473EC2124785474C
:100960006310F706B72702409843C176FD16719BC6
:1009700098C398431367170098C3B7170240D8432A
:10098000D8C3D843758FD8C3D843C166558FD8C351
:100990009843B7060001558F98C398439316670094
:1009A000E3DD06FED843B7160240719BD8C3D84397
:1009B00013672700D8C32147DC42B18BE39EE7FED3
:1009C00021016FF08FEE02C251BF01A097010020FC
:1009D0009381C102138181E01305000A97F5FF1F7F
:1009E0009385456217F6FF1F1306C66163FAC500BB
:1009F0008322050023A0550011059105E3EAC5FEF9
:100A0000172500001305052997F5FF1F9385855FBE
:100A10001386818063FAC5008322050023A0550058
:100A200011059105E3EAC5FE138581809385C18692
:100A30006377B500232005001105E36DB5FEB722ED
:100A4000000093820288739002308D42739042803E
:100A500097F2FFFF9382025B93E232007390523071
:100A6000EFF07FE397020000938282DB73901234F1
:100A700073002030B727014093870740631EF500BD
:100A8000EFF20FE2854513050020052F8145130580
:100A9000002025276FF06FE182805C413707F1FF6E
:100AA0001307F7EF7D8FDC419441A207D58FD98FD3
:100AB0005CC11C4537F7F1FF1307D77FD4457D8F05
:100AC0009C49D58F94458606D58FD98F1CC55C551A
:100AD000370710FF7D177D8FDC29FD1793F7F70F80
:100AE000D207D98F5CD582801C4589C593E7170052
:100AF0001CC58280F99BEDBF1C4589C593E7071093
:100B00001CC5828093F7F7EFE5BF1C4593E787008C
:100B10001CC5828008450D81058982801C4593E7AC
:100B200047001CC582800845098105898280A54748
:100B300063F8B704138765FF931717008322C50076
:100B4000BA971D433313F3001343F3FF337353007A
:100B5000B397F600B3E767005CC5994763E3C70442
:100B60007D16931726003E965859FD47B397C70048
:100B700093C7F7FFF98FB395C500DD8D4CD98280FF
:100B80009397150003230501AE971D473317F70010
:100B90001347F7FF33776700B397F6005D8F18C9E7
:100BA0006DBFB14763E2C7026516931726003E96F4
:100BB0001859FD47B397C70093C7F7FFF98FB3954F
:100BC000C500DD8D0CD982804D16131726005455B3
:100BD0003A96FD47B397C70093C7F7FFF58FB395D4
:100BE000C500DD8D4CD582805C41370700FA7D174A
:100BF000F98F5CC15C41DD8D4CC182801C41416735
:100C00007917F98F1CC12320050023220500232416
:100C10000500B707024023260500138787006317E6
:100C2000E500D8431367F700D8C382801387C70154
:100C30006316E500D8431367070FFDB71387070353
:100C40006318E500D8438566938606F0558FE9BFA3
:100C5000138747046315E500D843BD66C5BF1387F6
:100C600087056316E500D843B7060F00C5B713879D
:100C7000C7066316E500D843B706F000C1BF138767
:100C80000708E314E5FAD843B706000FC1B71841C7
:100C9000E177BD0794517D8F9C45D58F9449D58FC1
:100CA000D449D58F944DD58FD44DD58FD451D58F70
:100CB0009455D58FD98F1CC1DC455CC19C411CC5A6
:100CC000DC415CC582801C4189C593E717001CC1CB
:100CD000828041677917F98FDDBF1C4101C6DD8D28
:100CE0000CC1828093C5F5FFFD8DDDBF4CC18280B4
:100CF0004841420541818280B7070240C8C38280D3
:100D0000B707674537270240938737125CC3B79709
:100D1000EFCD9387B79A5CC38280372702401C4B84
:100D200093E707081CCB8280B7270240C84F058194
:100D300005898280372702405C470545858B91E70E
:100D400048474189133515000D058280EFF24FB5F4
:100D50002A84CD3785476318F50019E0154529A089
:100D6000D13F7D14C5BF7DD86FF02FB4EFF24FB3E4
:100D7000653F814419E19304500A37050B00F937A8
:100D800011476310E506B70767453724024093878C
:100D900037121CC4B797EFCD9387B79A1CC41C4871
:100DA00037050B0093E707021CC81C4893E70704AC
:100DB0001CC8693F11476310E5021C48096593F799
:100DC000F7FD1CC81C4893E707011CC8B7070020A3
:100DD00023909780A53F95476305F5001C48BD9B70
:100DE0001CC86FF08FACEFF2AFAB5111B70767457E
:100DF0002AC432C236C037240240938737121CC43B
:100E0000B797EFCD9387B79A1CC40965AE843D3F71
:100E100091478246124622476317F5021C48D98E35
:100E2000D58C93E70701458E1CC81366260CB707BF
:100E300000202391C7800965113F95476305F500A0
:100E40001C48BD9B1CC831016FF02FA6944593F739
:100E5000060193F2F60081C7DC41B3E2F20083D3CE
:100E6000050093F7F30FA5C303230500611122C208
:100E700026C081471304800293048004054733167B
:100E8000F70033F7C3006312E602939527003D474E
:100E90003317B7001347F7FF33736700B395B200FA
:100EA00033E36500639D860050C985072147E397BA
:100EB000E7FC124423206500824421018280E396EE
:100EC00096FE10C9DDB78280C167CD8F1CCD0CCDD9
:100ED0001CCD1C4D1C4D828037030140032743006D
:100EE0009317350063D00702B707C0FFF517F98FD6
:100EF00037070007D98FD9CD370700F07D17798DD7
:100F0000C98F49A8635D0500B707E0FFED17F98FAA
:100F100037070007D98FBDCD06050581D5B7B707BF
:100F20003000931605013376F500C1826313F60293
:100F3000370600F97D16B377C70003274300798E83
:100F40002322C300A1C95581131745003395E6003C
:100F500045BF9317B50063D407029357050113F6F5
:100F6000F7008D47B397C70093C7F7FFF98F37078F
:100F70000007D98F85C1135755011207C1BF55818D
:100F800012053395A6009347F5FFF98F3707000741
:100F9000D98FBDF5370701405CC3828023A0A186AD
:100FA000828083A60186854718216390F6021C3152
:100FB000639CD7023C219A0793E707F8B7E600E065
:100FC00093F7F70FBA962380F6408546935757005C
:100FD0003397E600544189CE938707048A07B7E622
:100FE00000E0B69798C38280EDF33C219A07F9B7E9
:100FF00093870706B7E600E08A07B69798C30F10F5
:101000000000828037460240832706803707FAFFB8
:101010007D177D8F54411C41C606CA07D58FD98FD5
:101020002320F68082808547631BF5003747024006
:1010300083270780C166D58F2320F7808280B7463B
:10104000024083A7068041777D17F98F23A0F680A1
:101050008280371702401C430E0593F777F05D8DB1
:1010600008C3828009C9371702401C43B706000134
:10107000D58F1CC38280B71602409C42370700FF01
:101080007D17F98F9CC28280EFF28F81B7F7FF1F27
:101090002A8403C5477D9307F00F630FF500894746
:1010A000631AF400B7170240DC437D891397F700F9
:1010B000635307004145713F371702405C43F19B82
:1010C0005D8C40C36FE07FFEB7160240DC42417783
:1010D0001307F77FF98F5D8DC8C28280EFE25FFC56
:1010E000371702405C4391462A84B18B6385D70051
:1010F000A1466380D708B7376E01938707601CC08D
:10110000B7160240DC42918313F7F700B7070020BF
:1011100093878701BA978C23DC42184093F5F50F2B
:1011200093F707083355B70081E73A85EFE09FFA58
:1011300048C008C448C4B7170240DC438D46AD839D
:10114000FD8B13D737008A07F18BD98F13F6370140
:1011500013F7370063F4C600138747FFB707002073
:1011600093874700BA978C23EFE0DFF608C86FE05B
:10117000DFF35C43B777DC02938707C049B799C5B3
:10118000371702405C4B5D8D48CB8280B717024019
:10119000D84B1345F5FF798DC8CB828099C5371799
:1011A00002401C4F5D8D08CF8280B7170240984FD8
:1011B0001345F5FF798D88CF828099C53717024096
:1011C0005C475D8D48C78280B7170240D8471345FA
:1011D000F5FF798DC8C782801E213737014013077C
:1011E00007C0C207C1836306E500370700406316E6
:1011F000E500BA2193F7F7F8D98FFA2193F7F7CFE3
:10120000C207C183D98F1EA1DE215EB59E211EB506
:10121000B7370140938707C06314F5009C251EB9BA
:1012200085475EA982801E3165771307F7CFC20715
:10123000C183BD9BC207C1831EB11E31562103D39A
:101240008500C20713960601162DC18393F7F7FD9B
:10125000758F96214182A206558FB62142074183A0
:10126000B3E666009206D58FB7360140C207938673
:1012700006C0C183631ED502B62593F7F7F703D3E3
:10128000C5009206D58FD621C207C183920693F777
:10129000F7FBD58FFD769386F63FF18EF225C207D8
:1012A000C183336666000A06D18E13960601418219
:1012B00052A11AADFA2118DD1EB182801E31922191
:1012C00003D38500C207C18393F7F7EFC207C18339
:1012D0001EB11E3156215A2DC207C18342074183D8
:1012E0001377C7F8518FB22193F7F7DFC206336641
:1012F00066002206D18F13960701B7370140938706
:1013000007C0C1824182631FF502FD779387F77F93
:10131000F18FB22503D3C5002206D18FD221C20797
:10132000C183220693F7F7BFD18F13960701F57794
:10133000FD17FD8EFE254182B3E767009207DD8E23
:10134000C206C182FE2156A15AAD5CDD12B1828077
:101350001E2189C593E717001EA18280C207C183A1
:10136000F99BC207C183CDBF8357450491C521674F
:10137000D98F2312F5048280C607C583DDBF1E21E5
:1013800089C593E707081EA18280C207C18393F72E
:10139000F7F7C207C183C5BF1A2DFD779387F77F83
:1013A000F98FA205CD8FC207C1831EAD82805E2D4D
:1013B000C207C183DD9BDD8D4EAD82804CDD828016
:1013C000EFE21FCE1629F577FD17F58FF621DA2506
:1013D0002111D58F1EA95625FD779387379FF58F4D
:1013E000D6212A842EC0D58F9625D58FB625D58FA8
:1013F0005EA55E29C207C18393F7F7CF5D8F5AA917
:101400004800E939B7470140938707808245631256
:10141000F406C2475A24139517003E9542070E055D
:1014200041873E958C41635807048605EFE09FCACB
:10143000930540062AC0EFE0FFC982479314450098
:10144000930540063E85EFE0BFCB5E24C207C1870F
:1014500063D507020E059305400613052503EFE04B
:101460007FC71D89C98CC204C18006A461016FE0D9
:10147000DFC3B24745B78A0555BF1205930540063D
:1014800013052503EFE01FC53D89E9BF91C55E2522
:101490000967D98F5EA582805A25F977FD17F98FE4
:1014A000D5BF13F7F50F85471583B395B7006319BB
:1014B000F7009307C500984301CED98D8CC3828075
:1014C000894693074501E318D7FE93070501E5B761
:1014D00093C5F5FFF98DDDB75E2901C6DD8D4EA9F7
:1014E000828093C5F5FFFD8DDDBF93F5F51F4EA1FD
:1014F00082800A216D8D3335A000828013F7F50FAD
:1015000085461583B397B6006311D7025A25F98F24
:101510001A2101454207418381CB0545A181B315BD
:10152000B5006D8F3335E000828089466314D700A3
:101530001A29F1BF5A29E1BFEFE29FB6B707002091
:1015400003A50700B7157A0093850520EFE09FB843
:101550001375F50F2383A18693175500898F8A078A
:101560003E950E052392A1866FE03FB4EFE25FB394
:101570007111AE840144635DC402B7470140138713
:1015800007803A859305000432C0A537B74701406C
:1015900013870780024675D53387840083050700CB
:1015A000138507800504C205C18181370246E1B772
:1015B000328511016FE07FAF3707002013078702E4
:1015C0001C439386C1863E956369D500938681D07E
:1015D00063E5A60008C33E858280FD57EDBF41113B
:1015E00006C62EC00DCD1841AA8705C358417D55AA
:1015F00011CB8546631BD70098472300070023A221
:1016000007000545B240410182809847824614A3F5
:101610009847050798C7D8437D17D8C3DDB7054657
:101620008A85A937F9BF011122CC2EC206CE26CA5F
:101630002A84814793050002634506029245BE95C0
:10164000838505008DE563D8C70263D4E702198E50
:101650001305000293F526002AC089C501E793050A
:1016600000032EC0858A814495EAB2840DA08507C7
:10167000F1B71D8EF1BF0146E1BF824522853AC810
:1016800032C63EC4A93FA24732464247FD14E34654
:1016900090FEB284635306008144058E63C7E7025F
:1016A000A68792463387974036978305070095EDC6
:1016B000B28463449004635306000146F2406244DE
:1016C000D2443305F600056182801D8FBA879305E9
:1016D0000003228532C83EC63AC41137B2472247BA
:1016E0004246FD17EDF7BA9465BF228532C63EC467
:1016F000FD35A247324685076DB78245228532C443
:101700003EC2F13DFD142246924765B7397106DEAF
:1017100022DC26DA3EC232833A8689ED924693076E
:10172000000301476C08FC86FD3DF2506254D25420
:1017300021618280AA843684AE8791CA29470144F8
:101740006317E30063D50500B307B0400544864640
:10175000A309010213073103938666FC36C49A85F8
:101760003E8532CA3AC81AC63EC0EFE07F99A54608
:10177000824732434247524663D4A600A24636957A
:10178000130505039306F7FFA30FA7FE9A853E8571
:1017900032CC3ACA1AC83EC636C0EFE0BF93B24751
:1017A00042435247624663F9670401CC29CA924713
:1017B000898BB1C79305D002268532C40D352246E8
:1017C0007D169247918B95C306479307100632C446
:1017D000930500032685631EF702113593058007E4
:1017E0002685F53B2246090479161647924682451E
:1017F0002685153D229515BFAA8702478DB78246DB
:101800009307D0020144A38FF6FE9307E7FF3EC083
:101810004DBFF13393058005E1B701458280014555
:101820008280130181FD22D026CE06D22AC4AE8248
:10183000328402C681448385020089EDA24781C7B4
:1018400081453E85693B925002542685F24413013E
:1018500081028280930750026388F500224516C8F2
:101860008504B53BC24239A8838712001387120052
:10187000639CB7002245930550023AC88D33424716
:101880008504BA82850245BFD5DB9306B002638921
:10189000D70463C8F600930630026386D7048147F5
:1018A00005A09306D002638AD70093060003E3984D
:1018B000D7FE13872200894721A01387220085477E
:1018C000830607001306B0026383C6046341D60291
:1018D00013063002638BC602BA820145A54681A079
:1018E000138722006DBF138722009147D1BF1306D3
:1018F000D0026389C60013060003E39FC6FC93E78A
:10190000270031A005078547C1BF93E747000507BA
:10191000E1B713162500329506053A958502038630
:101920000200130706FD9375F70FE3F4B6FE1307E5
:10193000E0029946631EE60085028146A5450386BE
:101940000200130606FD1377F60F63F5E50236C6AF
:10195000038702001306A006630DC70A6343E6026D
:101960001306C0046307C70A13068006630CC70882
:1019700081452DA813972600BA968606B296850251
:101980007DBF130640076306C7081306A00763025E
:10199000C7081306C0068145631AC70003861200F4
:1019A0008D456314E6008502914585020386020099
:1019B000930300061307100663C4C3001307100443
:1019C0009303700663C4C3069303500663537618EB
:1019D0009303700463C1C30493055004635BB6169C
:1019E00013073004E310E6EA18409303440016CAD4
:1019F000230CE1001EC8A30C01000147BE862A8605
:101A00002C0849A8038612008145E311E6FA8902F1
:101A100071BF8502B1BF93063006E307D6FC63CEE3
:101A2000C606930680056303D602A9BD9306300758
:101A30006304D60463CBC6029306F0066302D60E97
:101A40009306000793E74700E31ED6E29146639FA3
:101A5000D50A930384000C40504016CA3AC23EC0D7
:101A60001EC8AA870147C146B9A09306500763085C
:101A7000D6069306800745BF1840B736000093038B
:101A800044009385C6AE11C3BA85324716CA1EC834
:101A9000BE862A862245413E0DA091466394D5021A
:101AA000930384000C40504016CA3AC23EC01EC880
:101AB000AA870547A94622458D33C243AA941E84AE
:101AC000D242C9B3B2460C4016C836C23AC011045D
:101AD0002A878546294622451539AA9461B391463D
:101AE000639DD500930384000C40504016CA3AC24F
:101AF0003EC01EC8AA87014775BFB2460C4016C833
:101B000036C23AC011042A878146E9B7B24616C8E0
:101B10000C40414636C23AC011042A87814665BF4F
:101B20009146639ED500930384000C40504016CA32
:101B30003AC23EC01EC8AA870147A146ADBFB24601
:101B40000C4016C836C23AC011042A878146214685
:101B500059B70C401306840040403AC22A872245F8
:101B600032C83EC02286B687A94616CA4D39AA9405
:101B70004244B9B7130141FD32CE3ED42AC67008A3
:101B8000FD57480006CC36D03AD202C23EC432C01D
:101B90004939E2401301C1028280130141F73EC579
:101BA0009307402086DC2EC0B2DE36C13AC3FC82E9
:101BB0002AC42ACC2D2897070000938747033ED6D6
:101BC000FD578245FC8397E7FF1F938727632AC64B
:101BD0002ACE8843F4182E862C0002DE82C836C234
:101BE000ED28E6501301C108828001458280AA8752
:101BF000850703C7F7FF6DFF3385A7407D158280FA
:101C0000411106C622C426C2FD576399F500FD5452
:101C1000B240224426859244410182805E2693F69A
:101C2000F50F93F4F50F93F7F7FD5EA65C5A584253
:101C300095C71C5E3284635CF7001C401387F7FF76
:101C400018C0A38FD7FE5C4085075CC0D1B7B285B2
:101C500036C0EF00502982466DD155BF0C4A1C4258
:101C600081CD63FBF50083C5F7FF63979500FD17F2
:101C700005071CC258C269BF5CDE930746045CDAE4
:101C80008D471CDE930766041CC2854738C22303B8
:101C9000D6045CC2B5BF511122C22E84CC5906C4F1
:101CA0009DC1930744046384F500EF00303F3C403E
:101CB000232A04025CC081CB5C5C01451CC0A240AD
:101CC0001244310182801C48232204007D551CC02F
:101CD0005E2493E707025EA4DDB7130101D61C085A
:101CE0002322F112970700009387C7F12326F128DA
:101CF00097070000938767FA232C8128232E112849
:101D0000232A91282AC02E84232E01102320011279
:101D10002328F12836C61C2232C2638F0730EF0019
:101D20007024124614229304160036951C31A18BA0
:101D3000A1C35C406357F002EF00D0221C40942303
:101D400036951431A18A99E22686F1B783260112CD
:101D500085071CC085062320D1125440FD1654C0AF
:101D6000C9BF024583270129A285829771D5E9BFA2
:101D7000930750026398F618232C011023280110B2
:101D80000C329307A0026397F500C1472328F11096
:101D900093042600A68725468C2393841700138579
:101DA00005FD637CA6060D46171500001305C5D476
:101DB0003EC436C2EF00F01F9246A24719CD9717D6
:101DC0000000938767D31D8D8547B397A700032530
:101DD00001115D8D2328A110A687938417009C23F1
:101DE00013067006636EF60C1306500663F2C71CEA
:101DF000130670046360F6041306500463FAC71AEE
:101E0000638F071213065002638EC70E8D4723247B
:101E1000F112A947232AF11081A8032581119317F4
:101E20002500AA978607938707FDAE97232CF1100C
:101E3000A6879DB79306B0056381D71263E8F606BF
:101E400093068005E394D7FC8326011193E60620D0
:101E50002328D110C146232AD1109306E006B3B738
:101E6000F6008D072324F1125C406355F01483279C
:101E7000011193F7070491EBEF00D00E1C4094235F
:101E800036951431A18A639F0612832781128946F1
:101E900063CFF6140245740022860C0A4D22854752
:101EA000630CF5188947E311F5EA79A0930630062B
:101EB0006381D70C93064006E39AD7F4A94661BF25
:101EC00093060007638FD70663E0F6029306E006E9
:101ED000638AD70A63EEF60693069006E398D7F274
:101EE000232A01108D47BDBF93065007E388D7FC16
:101EF00093068007E38AD7F493063007E398D7F078
:101F000089478DB75C406351F0021C4090236315F4
:101F1000D612850754401CC083270112FD1654C0F9
:101F200085072320F1120DB5024583270129A285DB
:101F300036C28297924671D90325C1116DE17D5554
:101F4000DDA08326011193E606022328D110EDBD02
:101F5000A147232AF110914731B7A6850808212906
:101F600083270111AA8493E707042328F1108547EA
:101F7000D5BD832701112324011293E707042328E9
:101F8000F110DDB58327011193F60701E39E06DA10
:101F9000B24613F51700032601129385460009C5C2
:101FA0002EC69C4292A34DB32EC69C4290C369BBE1
:101FB00095474DBD024583270129A2858297E308F5
:101FC00005EA9DBF8326011285062320D1125440C5
:101FD000FD1654C06355D00085071CC071BD024575
:101FE00083270129A2858297E30805E8B1B79146C6
:101FF00063C8F6000245740022860C0A192A45B50A
:1020000097E7FFFF93870700E38007D4024574003A
:1020100022860C0A97000000E700000049B55E2404
:1020200093F7070489FF8320C1290324812983248E
:1020300041291301012A82800325C111EDB79C4576
:10204000211122C806CA26C62AC02E8491E78C4DCB
:10205000854791C1FD571CC41C40C18B91E79C4230
:102060001387470098C298438144084C05C18546B0
:10207000631DD50614428C225448AE96942299E6EC
:10208000A9E4D2404244B2446101828014408504F4
:10209000C18A91E6144205079422A30FD7FE0C4291
:1020A000544285050CC20C44FD1654C2FD150CC4E7
:1020B00089CDE34CD0FA832604180245B2853AC490
:1020C00032C28296124622474DD11440C18A81EA1B
:1020D0005444850654C4144C99C223000700184880
:1020E0000145B30797001CC869BF32C48946631C09
:1020F000D5003AC2852D22461247144294223695C5
:102100001431A18AC1D6F1F0084C8546E31FD5FAF7
:102110008DBF130181FC171700001307679F36C09E
:102120003AD0944D171700001307C79E3AD297076D
:10213000000093870743171700001307E79D22D875
:102140003AD406DA26D62AC60D473EC82E843283F4
:102150006387E600970700009387A7573EC8184497
:102160009306C01502C21306F7FF63F8C600930773
:1021700037EA1307D0153EC218C418408566938607
:1021800006D09307C401558F3EC418C0BE84814653
:1021900083250300139726001C103E978C210843CB
:1021A00009461ACC36CA3125D246624325C50547B1
:1021B0006390E60E584019E71840214650C0136757
:1021C000072018C018401377F7AF18C0184413063B
:1021D000F7FF10C421C303260300130716002320B2
:1021E000E3001022138714003ACE90A00326430088
:1021F000BA847D162322C300634EC0000326041850
:1022000032459A8536CC1ACA02965243E246724744
:102210006314051285060D47E39CE6F6584019E362
:10222000294758C058404848971500009385058EA7
:10223000998D1ACA892252432687814410448322E9
:10224000040059CA032503004C481421B6958C217B
:10225000C1C593050003639CB6049397420163D8FC
:1022600007049247850489C7FD1705063EC210C4BE
:1022700083264300FD162322D3006355D004832612
:10228000030085062320D3001444FD1614C47DB733
:102290000947E39DE6F21840130600209375076096
:1022A000E39AC5F6414650C01367071039BFFD7663
:1022B0009386F66FB3F6D20014C014210507A30F5E
:1022C000D7FE7DB78326041832459A853ACC1ACAC0
:1022D0008296524362474DD9144093F6061085C644
:1022E000A24763FEE7008345F7FF8323C417324507
:1022F0009306F7FF1A8636C2829392463687A24724
:1023000005456301F7061440C18AB1E623000700C2
:102310005440A245C247324501463AC28297104016
:102320008247124793750602944389C91386460073
:1023300090C3944288C229A8814479BF13731600C0
:10234000938546006306030282478CC394428AA2A7
:102350005444850654C4A24701451D8FBA941848B9
:10236000BA9404C8D2504254B254130181038280FB
:1023700082478CC37DBF9C211307E0056386E70479
:102380001387150081460146930500103303C500ED
:102390002300D3000506E31BB6FE1306F7FF9DC31B
:1023A00093C616009302D0021303D0053306F5003E
:1023B00014A20C231306170063835502638465007F
:1023C00089E93A8632858280138725009C318546CB
:1023D0005DBFAE873287D9BF9307D002E5BF0C330C
:1023E000E38C65FEE3CAF5FE090785073306F500B1
:1023F00014A2E3CCB7FE75BF130141FD26D006D46D
:1024000022D22AC62EC032C2AE841384140083475F
:10241000F4FF3A8536CA3EC83AC49126C2472247DD
:10242000D2463E950C31A189E1E11307D002639FAA
:10243000E70A1C20054613842400638C06104147DC
:102440006390E60213070003639CE7001C20130758
:10245000800593F7F70D6399E70E1C30C146090418
:10246000B704008019E293C4F4FFB68526853ECCFC
:1024700032CA36C8EFD0DFC8C2462AC42685B68520
:10248000EFD05FC5E2475246C246AA828145014568
:102490006547938307FD2543637873009383F7FBB8
:1024A00063607706938397FC63D3D306FD576389F4
:1024B000F502FD5563E6A2026395A200A24763C13F
:1024C0007702AA8536851ECE16CC32CA36C8EFD022
:1024D0007FBEF243E2425246C2461E95854565479D
:1024E00005048347F4FF75B7A28405B71307B0024C
:1024F0006384E700014691B71C2013842400DDBFEC
:102500009383F7F963657700938397FA71BFFD575B
:10251000639FF50032479307200226851CC392472C
:1025200089EFA250125482541301C102828019C251
:102530003305A0409247F5D781C59307F4FF3EC00D
:102540009247024798C3F1BF9307000391FAA1464F
:1025500001BF13070003E38BE7EEA94611B797E726
:10256000FF1F9387A7C99C43985309E717E7FF1FED
:10257000130707B251B5130181FD26CE06D222D032
:102580002AC42EC0AE84138414008347F4FF3A8516
:1025900036CA32C83EC63AC2D922B247124742466C
:1025A0003E950C31D246A189D5E91307D002639933
:1025B000E70A1C2013842400854463840610C14567
:1025C0006390B60293050003639CB7001C2093053B
:1025D000800593F7F70D6391B70E1C30C1460904CF
:1025E000B6857D5532CA3EC836C6EFD0BFAEB246BC
:1025F0002AC27D55B685EFD0BFB05246C247B2461B
:10260000AA82814501456547938307FD2543637889
:1026100073009383F7FB636F7704938397FC63D412
:10262000D30663C005069247FD5563E5A702639490
:10263000A70063C17202AA85368532CC1ECA16C8AD
:1026400036C6EFD03FA7D243B246C24262461E957D
:102650008545654705048347F4FF7DB7A28425B708
:102660001307B0026384E700814481BF1C201384F8
:102670002400DDBF9383F7F963677700938397FAAC
:1026800079BFFD55C1BF63DE0500224793072002D5
:102690007D551CC301EE92500254F2441301810295
:1026A000828099C03305A0407DD681C59307F4FF91
:1026B0003EC082471CC2C5B79307000395F2A146EE
:1026C00005B793050003E383B7F0A94611BF97E769
:1026D000FF1F9387A7B29C43985309E717E7FF1F93
:1026E0001307079B49BD311122C62E84CC5906C859
:1026F00026C493074404639EF50293050040A92471
:1027000019E57D55C2403244A244510182809307AD
:1027100000401CDC8347640448D81305D53F3CA126
:10272000834754041CB1834744041CA108C00145DD
:10273000D1BF185C9314170026863AC0C52471D106
:102740000247AA852AC2B306E50036853A8636C016
:10275000AD288246924704DC14C05CD8C9BF03256B
:10276000C50E828097E7FF1F938747A99C439C5320
:1027700089E797E7FF1F9387A79103A5C70E82807C
:1027800091ED71118A85014501CA795591C61C22C6
:102790009CC108223335A00011018280014509CA7D
:1027A000795599C61C229CC108223335A00082802D
:1027B000828093F5F50F2A966314C5000145828047
:1027C0001C21E38EB7FE0505C5BFB3C7A5008D8BE1
:1027D0003307C50081E78D4763E7C702AA87637E99
:1027E000E50A942185078505A38FD7FEE3EBE7FE75
:1027F0008280942185078505A38FD7FEE3EBE7FE52
:1028000002441101828093763500AA8789CA9421F7
:1028100085078505A38FD7FE93F63700C5BF93764E
:10282000C7FF138606FE63F5C706711122C0C049B3
:1028300003A3050083A38500C0CB804D23A06700C0
:1028400003A3450080CFC04D23A2670083A2C5002B
:1028500003A3050193854502C0CF03A4C5FF23A4AC
:10286000770023A6570023A867009387470223AE6B
:1028700087FEE3EEC7FAE3F3D7F89041910791059D
:1028800023AEC7FECDBF90419107910523AEC7FE91
:10289000E3EBD7FEE3E7E7F482808280CDC583A730
:1028A000C5FF511122C206C426C01384C5FF63D3DD
:1028B00007003E94AA84F52A97E7FF1F9387879421
:1028C0009C4389EF2322040097E7FF1F23AC8792E4
:1028D0001244A240268582443101E9AA637EF400B5
:1028E00014403307D4006396E7009843DC433697DF
:1028F00018C05CC0D1BFBA87D84319C3E37DE4FEDA
:1029000094433386D700631F86001040B29694C369
:102910003386D700E31EC7FA10435843B29694C3D8
:10292000D8C37DB76375C400B1479CC055B710408C
:10293000B306C4006316D70014435843B29614C0BC
:1029400058C0C0C371B78280411126C2938435003C
:10295000F19806C622C4A104B14763F5F404B1445A
:1029600063E4B4042AC0B1221387818014438247F0
:10297000368439E01387C180184301EB3E858145D9
:102980003EC0E52023A6A18082473E85A6853EC0A5
:10299000E9287D5782476314E506314798C33E8591
:1029A000112A29A0E3DE04FAB1471CC10145B24057
:1029B00022449244410182801840058F634E0702F1
:1029C0002D466376E60018C03A9404C031A0584002
:1029D0006392860223A4E1803E85E9281305B400B2
:1029E000130744006199B307E540F1D33E94098F82
:1029F00018C075BFD8C2CDB7A28640409DBF130492
:102A000035007198E30385FCB305A4403E853EC0C4
:102A1000A9287D578247E31AE5FA41B799E1B285C3
:102A200025B7311106C822C626C409EA853D81476B
:102A3000C2403244A2443E85510182802E8432C07D
:102A4000AA8495280246A287E374C5FEB28526852E
:102A500032C2DD3DAA8769DD1246A2852AC0B533A0
:102A6000A2852685253D8247E1B7511122C22A84DD
:102A70002E8523A4018606C4EFE01FB4FD5763171B
:102A8000F500938781869C4391C31CC0A2401244E9
:102A90003101828089CD9307F00F63F7C700930758
:102AA000A0081CC17D55828090A10545828001450A
:102AB00082808280828083A7C5FF1385C7FF63D58C
:102AC0000700AA959C413E9582800000563A253029
:102AD00034752C493A25303475000000563A2530BB
:102AE00034642C493A253034640D0A00286E756C24
:102AF0006C290000686C4C00412D46612D66383908
:102B000030313233343536375D0000002B2D000074
:102B10003030000078580000000000000000000085
:102B200000000000000000000000000000000000A5
:102B30000000000000000000000000000000000095
:102B40000000000000000000000000000000000085
:102B50000000000000000000000000000000000075
:102B60000000000000000000000000000000000065
:102B7000000000000000000043000000504F5349D7
:102B800058000000000000002E000000002020205F
:102B9000202020202020282828282820202020200D
:102BA00020202020202020202020202020881010DD
:102BB0001010101010101010101010101004040439
:102BC00004040404040404101010101010104141F7
:102BD00041414141010101010101010101010101E5
:102BE00001010101010101011010101010104242F9
:102BF00042424242020202020202020202020202B5
:102C00000202020202020202101010102000000054
:102C100000000000000000000000000000000000B4
:102C200000000000000000000000000000000000A4
:102C30000000000000000000000000000000000094
:102C40000000000000000000000000000000000084
:102C50000000000000000000000000000000000074
:102C60000000000000000000000000000000000064
:102C70000000000000000000000000000000000054
:102C80000000000000000000000000000000000044
:102C9000006CDC020204060804080C10081018205E
:102CA0001020304020406080010203040506070820
:102CB000010203040506070864020020000000006A
:102CC000382B0000582B0000182B000000000000DB
:102CD00000000000000000000000000000000000F4
:102CE00000000000000000000000000000000000E4
:102CF00000000000000000000000000000000000D4
:102D000000000000000000000000000000000000C3
:102D10000000000000000000000000004300000070
:102D200000000000000000000000000000000000A3
:102D30000000000000000000000000004300000050
:102D40000000000000000000000000000000000083
:102D50000000000000000000000000004300000030
:102D60000000000000000000000000000000000063
:102D70000000000000000000000000004300000010
:102D80000000000000000000000000000000000043
:102D900000000000000000000000000043000000F0
:102DA0000000000000000000000000000000000023
:102DB00000000000000000000000000043000000D0
:102DC0000000000000000000000000000000000003
:102DD00000000000000000000000000043000000B0
:102DE00000000000000000000000000000000000E3
:102DF000000000000000000000000000942A000015
:102E000080270000000000008C2B0000882B0000B1
:102E1000842B0000842B0000842B0000842B0000F6
:102E2000842B0000842B0000842B0000842B0000E6
:102E3000842B0000FFFFFFFFFFFFFFFFFFFFFFFFEF
:102E4000FFFF00000100415343494900000000001A
:102E50000000000000000000000000000000000072
:102E600000000000000041534349490000000000F9
:102E70000000000000000000000000000000000052
:102E800000000000000000002C00002000000000F6
:00000001FF
